{
    "contractName": "Hello",
    "abi": [
        {
            "inputs": [
                {
                    "internalType": "string",
                    "name": "initialMessage",
                    "type": "string"
                }
            ],
            "name": "PrintMessage",
            "outputs": [],
            "stateMutability": "nonpayable",
            "type": "function"
        },
        {
            "inputs": [],
            "name": "message",
            "outputs": [
                {
                    "internalType": "string",
                    "name": "",
                    "type": "string"
                }
            ],
            "stateMutability": "view",
            "type": "function"
        },
        {
            "inputs": [
                {
                    "internalType": "string",
                    "name": "newMessage",
                    "type": "string"
                }
            ],
            "name": "setMessage",
            "outputs": [],
            "stateMutability": "nonpayable",
            "type": "function"
        }
    ],
    "bytecode": "608060405234801561001057600080fd5b5061033b806100206000396000f3fe608060405234801561001057600080fd5b50600436106100415760003560e01c80632211b7a814610046578063368b877214610046578063e21f37ce1461005b575b600080fd5b6100596100543660046101b7565b610079565b005b610063610090565b6040516100709190610261565b60405180910390f35b805161008c90600090602084019061011e565b5050565b6000805461009d906102b4565b80601f01602080910402602001604051908101604052809291908181526020018280546100c9906102b4565b80156101165780601f106100eb57610100808354040283529160200191610116565b820191906000526020600020905b8154815290600101906020018083116100f957829003601f168201915b505050505081565b82805461012a906102b4565b90600052602060002090601f01602090048101928261014c5760008555610192565b82601f1061016557805160ff1916838001178555610192565b82800160010185558215610192579182015b82811115610192578251825591602001919060010190610177565b5061019e9291506101a2565b5090565b5b8082111561019e57600081556001016101a3565b6000602082840312156101c8578081fd5b813567ffffffffffffffff808211156101df578283fd5b818401915084601f8301126101f2578283fd5b813581811115610204576102046102ef565b604051601f8201601f19908116603f0116810190838211818310171561022c5761022c6102ef565b81604052828152876020848701011115610244578586fd5b826020860160208301379182016020019490945295945050505050565b6000602080835283518082850152825b8181101561028d57858101830151858201604001528201610271565b8181111561029e5783604083870101525b50601f01601f1916929092016040019392505050565b600181811c908216806102c857607f821691505b602082108114156102e957634e487b7160e01b600052602260045260246000fd5b50919050565b634e487b7160e01b600052604160045260246000fdfea2646970667358221220d85ec35004e57841e10f9f525c9937d1ce8148b93a9225a33befd6283f63a8a964736f6c63430008030033",
    "sourcePath": "c:/Users/marina/HelloWorldHack/funding.sol",
    "compiler": {
        "name": "solc",
        "version": "0.8.3+commit.8d00100c"
    },
    "functionHashes": {
        "PrintMessage(string)": "2211b7a8",
        "message()": "e21f37ce",
        "setMessage(string)": "368b8772"
    },
    "gasEstimates": {
        "creation": {
            "codeDepositCost": "165400",
            "executionCost": "208",
            "totalCost": "165608"
        },
        "external": {
            "PrintMessage(string)": "infinite",
            "message()": "infinite",
            "setMessage(string)": "infinite"
        }
    }
}