{
    "contractName": "CharityFunding",
    "abi": [
        {
            "inputs": [
                {
                    "internalType": "uint256",
                    "name": "amount",
                    "type": "uint256"
                }
            ],
            "name": "deposit",
            "outputs": [],
            "stateMutability": "payable",
            "type": "function"
        },
        {
            "inputs": [
                {
                    "internalType": "address payable",
                    "name": "charity_organisation",
                    "type": "address"
                },
                {
                    "internalType": "uint256",
                    "name": "quantity",
                    "type": "uint256"
                }
            ],
            "name": "fund",
            "outputs": [],
            "stateMutability": "nonpayable",
            "type": "function"
        },
        {
            "inputs": [],
            "name": "getBalance",
            "outputs": [
                {
                    "internalType": "uint256",
                    "name": "",
                    "type": "uint256"
                }
            ],
            "stateMutability": "view",
            "type": "function"
        }
    ],
    "bytecode": "608060405234801561001057600080fd5b5061014b806100206000396000f3fe6080604052600436106100345760003560e01c806312065fe0146100395780637b1837de14610059578063b6b55f251461007b575b600080fd5b34801561004557600080fd5b504760405190815260200160405180910390f35b34801561006557600080fd5b506100796100743660046100c7565b61008c565b005b6100796100893660046100fd565b50565b6040516001600160a01b0383169082156108fc029083906000818181858888f193505050501580156100c2573d6000803e3d6000fd5b505050565b600080604083850312156100d9578182fd5b82356001600160a01b03811681146100ef578283fd5b946020939093013593505050565b60006020828403121561010e578081fd5b503591905056fea264697066735822122035473f7144388b576e711ca0659412f8aab5cdd8ce39668c2be90ee5fce2083364736f6c63430008030033",
    "sourcePath": "c:/Users/marina/HelloWorldHack/SmartContractDemo/HelloWorld/contracts/funding.sol",
    "compiler": {
        "name": "solc",
        "version": "0.8.3+commit.8d00100c"
    },
    "functionHashes": {
        "deposit(uint256)": "b6b55f25",
        "fund(address,uint256)": "7b1837de",
        "getBalance()": "12065fe0"
    },
    "gasEstimates": {
        "creation": {
            "codeDepositCost": "66200",
            "executionCost": "117",
            "totalCost": "66317"
        },
        "external": {
            "deposit(uint256)": "209",
            "fund(address,uint256)": "infinite",
            "getBalance()": "148"
        }
    }
}