{
  "contractName": "CharityFunding",
  "abi": [
    {
      "inputs": [],
      "payable": false,
      "stateMutability": "nonpayable",
      "type": "constructor"
    },
    {
      "constant": false,
      "inputs": [
        {
          "internalType": "uint256",
          "name": "i",
          "type": "uint256"
        },
        {
          "internalType": "uint256",
          "name": "points",
          "type": "uint256"
        },
        {
          "internalType": "uint256",
          "name": "value",
          "type": "uint256"
        }
      ],
      "name": "fund",
      "outputs": [],
      "payable": false,
      "stateMutability": "nonpayable",
      "type": "function"
    },
    {
      "constant": false,
      "inputs": [
        {
          "internalType": "uint256",
          "name": "amount",
          "type": "uint256"
        }
      ],
      "name": "deposit",
      "outputs": [],
      "payable": true,
      "stateMutability": "payable",
      "type": "function"
    },
    {
      "constant": true,
      "inputs": [],
      "name": "getBalance",
      "outputs": [
        {
          "internalType": "uint256",
          "name": "",
          "type": "uint256"
        }
      ],
      "payable": false,
      "stateMutability": "view",
      "type": "function"
    }
  ],
  "bytecode": "0x608060405234801561001057600080fd5b50600173d03ea8624c8c5987235048901fb614fdca89b11790806001815401808255809150509060018203906000526020600020016000909192909190916101000a81548173ffffffffffffffffffffffffffffffffffffffff021916908373ffffffffffffffffffffffffffffffffffffffff1602179055505060017395ced938f7991cd0dfcb48f0a06a40fa1af46ebc90806001815401808255809150509060018203906000526020600020016000909192909190916101000a81548173ffffffffffffffffffffffffffffffffffffffff021916908373ffffffffffffffffffffffffffffffffffffffff160217905550506101af806101146000396000f3fe6080604052600436106100345760003560e01c8063111d7d501461003957806312065fe014610088578063b6b55f25146100b3575b600080fd5b34801561004557600080fd5b506100866004803603606081101561005c57600080fd5b810190808035906020019092919080359060200190929190803590602001909291905050506100e1565b005b34801561009457600080fd5b5061009d61016f565b6040518082815260200191505060405180910390f35b6100df600480360360208110156100c957600080fd5b8101908080359060200190929190505050610177565b005b818102600081905550600183815481106100f757fe5b9060005260206000200160009054906101000a900473ffffffffffffffffffffffffffffffffffffffff1673ffffffffffffffffffffffffffffffffffffffff166108fc6000549081150290604051600060405180830381858888f19350505050158015610169573d6000803e3d6000fd5b50505050565b600047905090565b5056fea265627a7a72315820b43d161ccc91df56702c82cd5552fcc313a03c0298f6349d6932100dd04f272964736f6c63430005100032",
  "source": "pragma solidity 0.5.16;\r\n\r\n\r\ncontract CharityFunding {\r\n\r\n    uint256 q;\r\n    address payable []charity_organisations;\r\n\r\n    constructor() public {\r\n        charity_organisations.push(0xd03ea8624C8C5987235048901fB614fDcA89b117);   \r\n        charity_organisations.push(0x95cED938F7991cd0dFcb48F0a06a40FA1aF46EBC); \r\n\r\n    }\r\n    \r\n    function fund(uint i, uint256 points, uint256 value) public{\r\n\r\n        q = value * points;\r\n        charity_organisations[i].transfer(q);\r\n\r\n    }\r\n\r\n    function deposit(uint256 amount) payable public {\r\n\r\n        // nothing else to do!\r\n    }\r\n\r\n    function getBalance() public view returns (uint256) {\r\n        return address(this).balance;\r\n    }\r\n}",
  "sourcePath": "C:/Users/marina/HelloWorldFinal/SmartContractDemo/HelloWorld/contracts/CharityFunding.sol",
  "compiler": {
    "name": "solc",
    "version": "0.5.16+commit.9c3226ce.Emscripten.clang"
  },
  "schemaVersion": "3.3.4",
  "updatedAt": "2021-03-28T11:07:17.395Z",
  "networkType": "ethereum",
  "devdoc": {
    "methods": {}
  },
  "userdoc": {
    "methods": {}
  }
}